:020000040800F2
:100000007006002079020008EF0D0008BD0C000802
:10001000ED0D00086F040008890E000800000000C4
:10002000000000000000000000000000F30D0008C8
:100030007104000800000000F10D0008F50D000833
:10004000930200089302000893020008930200083C
:10005000930200089302000893020008930200082C
:10006000930200089302000893020008930200081C
:10007000930200089302000893020008930200080C
:1000800093020008930200089302000893020008FC
:1000900093020008930200089302000893020008EC
:1000A00093020008930200089302000893020008DC
:1000B00093020008930200089302000893020008CC
:1000C00093020008930200089302000893020008BC
:1000D00093020008930200089302000893020008AC
:1000E000930200089302000893020008930200089C
:1000F000930200089302000893020008930200088C
:10010000930200089302000893020008930200087B
:10011000930200089302000893020008930200086B
:10012000930200089302000893020008930200085B
:10013000930200089302000893020008930200084B
:10014000930200089302000893020008930200083B
:10015000930200089302000893020008930200082B
:10016000930200089302000893020008930200081B
:100170009302000893020008000000000000000045
:1001800093020008930200089302000893020008FB
:100190009302000893020008000000009302000888
:1001A0009302000893020008000000000000000015
:1001B0009302000800000000000000009302000805
:1001C00093020008930200089302000893020008BB
:1001D000930200089302000800F002F800F03CF8D7
:1001E0000AA090E8000C82448344AAF10107DA4592
:1001F00001D100F031F8AFF2090EBAE80F0013F0A8
:10020000010F18BFFB1A43F001031847C80C000088
:10021000E80C0000103A24BF78C878C1FAD8520719
:1002200024BF30C830C144BF04680C607047000070
:100230000023002400250026103A28BF78C1FBD8EF
:10024000520728BF30C148BF0B6070471FB500F090
:1002500033FE1FBD10B510BD00F0CFF81146FFF7FB
:10026000F5FF00F022FE00F0EDF803B4FFF7F2FF17
:1002700003BC00F0F5F80000094880470948004732
:10028000FEE7FEE7FEE7FEE7FEE7FEE7FEE7FEE746
:10029000FEE7FEE704480549054A064B70470000A3
:1002A000790E0008D90100087000002070060020B7
:1002B000700200207002002053EA020C00F06980F6
:1002C0002DE9F04B4FF00006002B1FBFB3FA83F56A
:1002D00003FA05F424FA05F65E4012BF1643B2FA9B
:1002E00082F502FA05F4C5F120051EBF22FA05FCCD
:1002F00044EA0C04203556EA044C4FEA144418BF73
:10030000641C4FF000084FF00009904271EB030CA1
:1003100039D3002919BFB1FA81F701FA07F6B0FA0B
:1003200080F700FA07F6C7F120071EBF20FA07FC86
:1003300046EA0C062037B6FBF4FCA7EB0507103F96
:1003400007F01F0BCBF120060CFA0BFB2CFA06F67C
:1003500044BFB3460026202FA4BF5E464FF0000BDB
:100360005BEA060C08BF4FF0010B19EB0B09ABFB66
:10037000027C48EB0608C01B06FB02CC0BFB03CC3F
:1003800071EB0C01C1E70B46024641464846BDE809
:10039000F08B13B54FF000004FF00001AFF3008079
:1003A000BDE81C4070474FF0000200B5134694466C
:1003B0009646203922BFA0E80C50A0E80C50B1F1BD
:1003C0002001BFF4F7AF090728BFA0E80C5048BFD1
:1003D0000CC05DF804EB890028BF40F8042B08BF6F
:1003E000704748BF20F8022B11F0804F18BF00F86B
:1003F000012B7047704770477047754600F02CF826
:10040000AE4605006946534620F00700854618B001
:1004100020B5FFF73FFFBDE820404FF000064FF04A
:1004200000074FF000084FF0000B21F00701AC4629
:10043000ACE8C009ACE8C009ACE8C009ACE8C00948
:100440008D46704710B50446AFF300802046BDE8E6
:100450001040FFF70ABF000000487047100000205E
:1004600001491820ABBEFEE7260002007047FEE7F8
:10047000704700002DE9F84FDFF8ACA100220124FD
:100480000AF1040B03254FF00F090BF1040E00BF16
:100490000B6804FA02F63340B3426ED10F7907F0CD
:1004A0000307012F01D0022F16D187684FEA4208B7
:1004B00005FA08FC27EA0C07D1F80CC00CFA08FC76
:1004C0004CEA070CC0F808C04768B7430E79C6F37A
:1004D000001696403E4346600E79F643B6070AD0B2
:1004E000C6684FEA420C05FA0CF7BE438F6807FA5C
:1004F0000CF73743C7600E7906F00306022E10D1C1
:10050000D60800EB8608D8F8206057074FEAD76C6A
:1005100009FA0CF7BE430F6907FA0CF73743C8F81E
:10052000207006684FEA420C05FA0CF7BE430F79BB
:1005300007F0030707FA0CF7374307604E6816F415
:10054000403F6BD0394E376847F480473760366894
:1005500022F0030706F480460096354E07EB060CA2
:10056000DCF8086897074FEA177809FA08F7BE43DE
:10057000304FB84202D100271FE04FE02E4FB84263
:1005800001D1012719E02D4FB84201D1022714E013
:100590002B4FB84201D103270FE02A4FB84201D1B7
:1005A00004270AE0284FB84201D1052705E0274F6C
:1005B000B84201D1062700E0072707FA08F73743BA
:1005C000CCF80878DAF800605746D1F804C09E43AA
:1005D0005FEACC3C00D51E433E60DBF800605F461E
:1005E000D1F804C09E435FEA8C3C00D51E433E60B8
:1005F000DEF800607746D1F804C09E435FEACC2C59
:1006000000D51E433E60084F0C373E68D1F804C049
:100610009E435FEA8C2C00D51E433E60521C102A7C
:10062000FFF436AFBDE8F88F003C0140443802408B
:100630000030014000000240000402400008024077
:10064000000C02400010024000140240001802405A
:100650000AB1816170470904FBE700000148806826
:1006600070470000000000200248816802781144B1
:1006700081607047000000200B4810B5016841F40C
:1006800000710160016841F480610160016841F41A
:1006900080710160032000F061F8002000F006F88E
:1006A00000F024F8002010BD003C024070B50D4D54
:1006B00004464FF47A712878B1FBF0F00A490968D2
:1006C000B1FBF0F000F0E6FA48B9102C07D2002296
:1006D0002146501E00F022F800206C6070BD012001
:1006E00070BD0000000000200C0000200A4808B582
:1006F000016841F480410160006800F4804000908E
:100700000548001F016841F080510160006800F059
:100710008050009008BD000044380240F0B40E4BF9
:100720001B680C46C3F30223C3F10705042D00D94F
:100730000425191D072901D2002300E0DB1E012634
:1007400006FA05F1491E214099409E40761E16404A
:100750003143F0BC00F099BB0CED00E0064900F01D
:10076000070208684FF6FF03184040EA0220034AD8
:1007700010430860704700000CED00E00000FA052F
:100780002DE9F0470E46050065D0DFF81481D8F852
:100790000000F7B200F00700B04207D288F80070FE
:1007A000D8F8000000F00700B04254D128683D4C52
:1007B000810712D5400703D5206840F4E05020603F
:1007C0002878000703D5206840F460402060206846
:1007D000A96820F0F000084320602878C0072DD0D9
:1007E000304968680839012812D0022813D003283C
:1007F00011D00968890700292DDA216821F0030149
:1008000001432160FFF72AFF814641F2883A0EE05A
:1008100009688903EFE709688901ECE7FFF71EFF24
:10082000A0EB0901514502D90320BDE8F0872068FB
:10083000696800F00C00B0EB810FEFD1D8F8001020
:10084000404601F00701B14207D90770006800F087
:100850000700B04201D00120E7E72878400705D51E
:100860002068E96820F4E0500843206028780007F9
:1008700006D52068296920F4604040EAC100206064
:1008800000F018F82168084AC1F30311515CC84010
:100890000649086006480068FFF708FF0020C4E723
:1008A000003C024008380240C20E00080C00002044
:1008B00004000020154810B5006810F00C02144820
:1008C00013D04110042A0FD0082A0ED10F4C241F38
:1008D0002268236802F03F025B0207D52068C0F35C
:1008E0008810A0FB010106E0084610BD2168C1F395
:1008F0008811A1FB00010023FFF7DEFC2168C1F392
:100900000141491C4900B0FBF1F010BD083802401C
:100910000024F4002DE9F84F04006ED02078DFF8B1
:100920006093C007A9F104054AD009F104000168E9
:10093000C1F38101012908D00068C0F381000228B9
:100940000AD1D9F80000400206D52868800337D5BF
:1009500060680028E1D033E06068B0F5803F10D0D7
:10096000B0F5A02F286810D020F4803028602868C7
:1009700020F4802028606068A8B1FFF76FFE06466B
:100980000DE0286840F48030F4E740F480202860CF
:10099000F7E700BFFFF762FE801B642873D8286862
:1009A0008003F7D50CE0FFF759FE064605E000BFCF
:1009B000FFF754FE801B6428F0D828688003F7D422
:1009C0002078DFF8C08280074FF0000A3ED5AC489F
:1009D000001D016811F00C0F08D00068C0F3810001
:1009E00002280BD1D9F80000400207D428688007FC
:1009F00016D5E068012800D112E03CE1E068B8B10A
:100A00000120C8F80000FFF729FE064605E000BFF8
:100A1000FFF724FE801B0228C0D828688007F7D57E
:100A20002868216920F0F80040EAC10028600DE044
:100A3000C8F800A0FFF712FE064604E0FFF70EFE1E
:100A4000801B02281FD828688007F7D42078000769
:100A500022D58B4E8C486169703671B101210160DD
:100A6000FFF7FCFD074604E0FFF7F8FDC01B022876
:100A700009D830688007F7D50EE0C0F800A0FFF76E
:100A8000EDFD074605E082E0FFF7E8FDC01B022808
:100A90007DD830688007F7D42078400768D5DFF824
:100AA000E0B100270BF13C0BDBF80000C0000BD4D9
:100AB000DBF8001041F08051CBF80010DBF80000AB
:100AC000012700F080500090704E3068C00510D4AF
:100AD000306840F480703060FFF7C0FD009005E0A2
:100AE000FFF7BCFD0099401A022850D83068C005B5
:100AF000F6D5634EA0686C3601280FD00528306803
:100B000010D020F001003060306820F00400306028
:100B1000A068B8B1FFF7A2FD00900FE0306840F088
:100B20000100F4E740F004003060F7E7FFF796FDBE
:100B30000099411A41F28830814268D830688007B4
:100B4000F4D50EE0FFF78AFD009007E0FFF786FD81
:100B50000099411A41F28830814258D830688007A4
:100B6000F4D42FB1DBF8001021F08051CBF8001045
:100B7000A069D8B34249091D0968C1F3810102295E
:100B80004CD00228504607D0C8F8600000E03EE094
:100B9000FFF764FD04463DE04746C8F86000FFF7F4
:100BA0005DFD064605E000BFFFF758FD801B0228EB
:100BB0002DD828688001F7D4F4E907010843E168DB
:100BC000334A490802EB0141A26841EA8211084315
:100BD000217C40EA0160217D40EA0171C9F80010E2
:100BE00001203866FFF73AFD044606E045E000BF05
:100BF000FFF734FD001B022809D828688001F7D5CB
:100C00003BE000BFFFF72AFD001B022802D90320AA
:100C1000BDE8F88F28688001F4D42EE00128F7D0D1
:100C2000D9F80000E26900F48001914223D1226AE0
:100C300000F03F0191421ED147F6C071626A014047
:100C4000B1EB821F17D1A26A4FF0FF3300F440319D
:100C500003EB5202B1EB024F0DD194F82C2000F0BF
:100C60007061B1EB026F06D194F8301000F0E040F3
:100C7000B0EB017F01D00120CAE70020C8E70000E7
:100C80000438024000004742800E47420070004096
:100C90000000FFFF10B5401EB0F1807F01D301209E
:100CA00010BD4FF0E02460610F21601700F0EDF8F7
:100CB0000020A06107202061002010BDFEE7000099
:100CC0002DE9F04186B014216846FFF76CFB4148DE
:100CD0000024016841F004010160016801F0040191
:100CE0000591016841F080010160016801F0800117
:100CF0000591016841F002010160016801F0020103
:100D00000591016841F008010160016801F00801E6
:100D10000591016841F040010160016801F0400166
:100D20000591016841F00101016000682A4E00F060
:100D3000010044F281050590002229463046FFF764
:100D400087FCDFF89880002240214046FFF780FCB6
:100D50004FF4005000904FF48810CDE9010469462B
:100D60001F48FFF787FB00950125CDE9015469462F
:100D700030460394FFF77EFB4FF440700226CDE926
:100D80000006032702940720CDE903706946154841
:100D9000FFF770FB40200090CDE9015469464046C2
:100DA0000394FFF767FB8020CDE9000469464046C5
:100DB0000294FFF75FFB4FF4E850CDE90006029480
:100DC0000A20CDE9037069460748FFF753FB06B0D8
:100DD000BDE8F081303802400004024000180240B3
:100DE00000080240000C024000000240FEE7FEE75F
:100DF00070477047FFF738BC10B594B0342168468F
:100E0000FFF7D1FA14210DA8FFF7CDFA18480024F6
:100E1000016841F080510160006800F0805012903C
:100E20001448016841F4404101600068069400F4F0
:100E30004040129002200090012003901020049066
:100E40006846FFF767FD08B172B6FEE70F20CDE9EF
:100E50000D044FF48050CDE90F4000210DA81194EE
:100E6000FFF78EFC002801D072B6FEE714B010BD6B
:100E700040380240007000400248016841F47001AF
:100E80000160704788ED00E0FEE70907090E0028C1
:100E900004DB00F1E02080F80014704700F00F0040
:100EA00000F1E02080F8141D7047FFF7E5FBFFF725
:100EB000A3FFFFF705FFFEE74FF04070E1EE100AD9
:100EC0007047000000000000000001020304060754
:100ED00008090000F40E00080000002010000000C7
:100EE00014020008040F0008100000206006000033
:100EF00030020008010000001000000000000000A7
:040F00000024F400D5
:04000005080001D915
:00000001FF
