:020000040800F2
:10000000580900207D02000807410008C52F00089C
:10001000054100083F050008594A0008000000009B
:10002000000000000000000000000000A9420008DD
:100030009D0900080000000009410008BD420008B9
:10004000970200089702000897020008970200082C
:10005000970200089702000897020008970200081C
:10006000970200089702000897020008970200080C
:1000700097020008970200089702000897020008FC
:1000800097020008970200089702000897020008EC
:1000900097020008970200089702000897020008DC
:1000A00051430008694300085D43000897020008B7
:1000B000970200089702000897020008D52F000851
:1000C000C92F000897020008970200087D41000828
:1000D000970200084D4A000897020008970200089E
:1000E000970200089702000897020008970200088C
:1000F000970200089702000875430008970200085D
:10010000970200089702000897020008970200086B
:10011000970200089702000897020008970200085B
:100120005D050008970200086905000897020008AD
:10013000970200089702000897020008970200083B
:10014000970200089702000897020008970200082B
:10015000970200089702000897020008970200081B
:10016000970200089702000897020008970200080B
:10017000970200089702000800000000000000003D
:1001800097020008970200089702000897020008EB
:10019000970200089702000800000000970200087C
:1001A000970200089702000800000000000000000D
:1001B00097020008000000000000000097020008FD
:1001C00097020008970200089702000897020008AB
:1001D000970200089702000800F002F800F03EF8CD
:1001E0000AA090E8000C82448344AAF10107DA4592
:1001F00001D100F033F8AFF2090EBAE80F0013F0A6
:10020000010F18BFFB1A43F001031847A04B000071
:10021000C04B0000103A24BF78C878C1FAD8520702
:1002200024BF30C830C144BF04680C607047000070
:100230000023002400250026103A28BF78C1FBD8EF
:10024000520728BF30C148BF0B607047002070477D
:100250001FB504F095FD1FBD10B510BD00F035F9B8
:100260001146FFF7F5FF04F045FC00F053F903B425
:10027000FFF7F2FF03BC00F05BF90000094880477C
:1002800009480047FEE7FEE7FEE7FEE7FEE7FEE778
:10029000FEE7FEE7FEE7FEE704480549054A064B90
:1002A0007047000041430008D901000858030020AE
:1002B00058090020580500205805002053EA020C78
:1002C00000F069802DE9F04B4FF00006002B1FBFB6
:1002D000B3FA83F503FA05F424FA05F65E4012BF7B
:1002E0001643B2FA82F502FA05F4C5F120051EBFE5
:1002F00022FA05FC44EA0C04203556EA044C4FEA85
:10030000144418BF641C4FF000084FF000099042DD
:1003100071EB030C39D3002919BFB1FA81F701FA47
:1003200007F6B0FA80F700FA07F6C7F120071EBFFC
:1003300020FA07FC46EA0C062037B6FBF4FCA7EBD4
:100340000507103F07F01F0BCBF120060CFA0BFB43
:100350002CFA06F644BFB3460026202FA4BF5E4603
:100360004FF0000B5BEA060C08BF4FF0010B19EBD6
:100370000B09ABFB027C48EB0608C01B06FB02CC5A
:100380000BFB03CC71EB0C01C1E70B460246414667
:100390004846BDE8F08B13B54FF000004FF0000168
:1003A000AFF30080BDE81C40704700000FB41CB5DF
:1003B000074B06AA7B4469460090059800F06DF84B
:1003C0000020694600F07CF81CBC5DF814FB0000BE
:1003D000090100002DE9F0410E460446002020628C
:1003E0002046E168884730B3252805D0D4E90121AB
:1003F0009047206A401CF2E7E168204600278847C2
:10040000050018D0A5F14100192802D820354FF475
:1004100000673246294620462760FFF717FF40B1A4
:10042000012804D0F61D26F007060836D8E7361D49
:10043000D6E72846DAE7206ABDE8F0814FF00002EF
:1004400000B5134694469646203922BFA0E80C50CA
:10045000A0E80C50B1F12001BFF4F7AF090728BFA5
:10046000A0E80C5048BF0CC05DF804EB890028BF21
:1004700040F8042B08BF704748BF20F8022B11F04A
:10048000804F18BF00F8012B7047704770477047C6
:1004900001694A1C02610878704700B58FB0CDE948
:1004A00001310021059105497944CDE90310114638
:1004B0006846FFF78FFF0FB000BD0000E5FFFFFFAC
:1004C0000A6802F8010B0A607047754600F02CF8C4
:1004D000AE4605006946534620F00700854618B031
:1004E00020B5FFF7D9FEBDE820404FF000064FF0E1
:1004F00000074FF000084FF0000B21F00701AC4659
:10050000ACE8C009ACE8C009ACE8C009ACE8C00977
:100510008D46704710B50446AFF300802046BDE815
:100520001040FFF7A4BE000000487047F40200200E
:1005300001491820ABBEFEE7260002007047FEE727
:1005400010B5054B30B101221021184600F0C7FC50
:10055000012010BD0022F7E7000C0240014800F026
:100560007FBA000034020020014800F079BA000090
:100570009402002001681823CAB2103AB2FBF3F2C9
:10058000054B6FF30901032A9B5CC36500D9091D64
:1005900081650846704700008A4D000810B5014685
:1005A00000208B698A6A4FF0C07453B1B3F5005FC5
:1005B00015D072B1012A0CD0022A0AD0032A09D11F
:1005C00004E01AB1012A06D0022A03D1C96AC9017E
:1005D00000D5012010BDC96AA142FAD010BD002A81
:1005E000F7D0012AF2D0022AF3D0032AF3D010BDAB
:1005F0002DE9F84FDFF8A0A283464FF40049052704
:1006000001224946504600F06AFC00268DF8006041
:1006100091208DF8010051208DF802003B46032205
:100620006946584601F00CFD00224946504600F04C
:1006300056FC642000F04EFB01224946504600F073
:100640004EFC4FF001088DF800808DF801603820D5
:100650008DF802003B4603226946584601F0F0FC43
:1006600000224946504600F03AFC642000F032FB7C
:1006700001224946504600F032FC022403258DF841
:1006800000408DF80150B4208DF802003B462A4608
:100690006946584601F0D4FC00224946504600F015
:1006A0001EFC642000F016FB01224946504600F073
:1006B00016FC8DF8005068208DF801008DF802605E
:1006C0003B4603226946584601F0BAFC00224946DF
:1006D000504600F004FC642000F0FCFA0122494678
:1006E000504600F0FCFB04208DF800008DF801401E
:1006F00040208DF802003B4603226946584601F02F
:100700009FFC00224946504600F0E9FB642000F0BF
:10071000E1FA01224946504600F0E1FB05268DF83A
:10072000006030208DF8010007278DF802703346F5
:1007300003226946584601F083FC00224946504690
:1007400000F0CDFB642000F0C5FA01224946504676
:1007500000F0C5FB06208DF8000084208DF8010014
:10076000B1208DF80200334603226946584601F055
:1007700067FC00224946504600F0B1FB642000F0BF
:10078000A9FA01224946504600F0A9FB8DF80070F5
:100790008DF80150BA208DF80200334603226946D5
:1007A000584601F04DFC00224946504600F097FBA8
:1007B000642000F08FFA01224946504600F08FFB7A
:1007C00008208DF800008DF801802C208DF80200A3
:1007D000334603226946584601F032FC002249465E
:1007E000504600F07CFB642000F074FA0122494678
:1007F000504600F074FB09208DF800008DF8014090
:1008000050208DF80200334603226946584601F015
:1008100017FC00224946504600F061FB642000F0BE
:1008200059FA01224946504600F059FB0A208DF83A
:100830000000F0208DF8010064208DF8020033469E
:1008400003226946584601F0FBFB00224946504608
:1008500000F045FB642000F03DFA01224946504675
:1008600000F03DFB0B208DF800008DF80160DC20CE
:100870008DF80200334603226946584601F0E0FB3A
:1008800000224946504600F02AFB642000F022FA7C
:100890000120BDE8F88F0000000C02402DE9F04176
:1008A000050000D5684286B2A6F114003C2806D89F
:1008B000012004F0D3F8642000F00CFA02E00020DC
:1008C00004F0CCF8002D04DA0120FFF739FE0127EF
:1008D00003E00020FFF734FE00270F4C462D0BDB12
:1008E00014E02068B042206801D2401C00E0401EA5
:1008F00020600A2000F0EEF92068B042F1D108E053
:100900002068401C20600A2000F0E4F92068462896
:10091000F6D13846BDE8F081344401402DE9F0417C
:10092000050000D5684286B2A6F114003C2806D81E
:10093000012004F093F8642000F0CCF902E00020DC
:1009400004F08CF8002D04DA0020FFF7F9FD0127F0
:1009500003E00120FFF7F4FD00270F4C462D0BDBD1
:1009600014E02068B042206801D2401C00E0401E24
:1009700020600A2000F0AEF92068B042F1D108E012
:100980002068401C20600A2000F0A4F92068462856
:10099000F6D13846BDE8F08134440140704772B664
:1009A000FEE72DE9F0410446876D00F09DFA06460A
:1009B00094F835000025022806D08020606584F870
:1009C00034500120BDE8F0812068016821F0160153
:1009D00001602068416921F080014161206C08B903
:1009E000A06C20B12068016821F008010160206836
:1009F000016821F0010101600CE000F075FA801B34
:100A0000052807D920206065032084F8350084F884
:100A10003450D7E720680068C007EED194F85C1026
:100A20003F208840B860012084F8350084F83450B5
:100A30000020C7E790F83510022903D080214165D6
:100A400001207047052180F835100068016821F009
:100A5000010101600020704790F8350070470000E8
:100A60002DE9F84304464FF00009CDF800906348A3
:100A70004FF41651A56D0068B0FBF1F72E6894F89D
:100A80005C10082000FA01F131420FD021680A6899
:100A900052070BD50A6822F004020A6094F85C1031
:100AA0008840A860606D40F00100606594F85C10BB
:100AB0004FF0010808FA01F0304208D02168496976
:100AC000090604D5A860606D40F00200606594F8E6
:100AD0005C1004208840304208D0216809688907EA
:100AE00004D5A860606D40F00400606594F85C1067
:100AF00010208840304218D021680968090714D5B1
:100B0000A86020680168490304D50068000308D57F
:100B1000A16C07E00168C90503D4016821F0080150
:100B20000160216C09B12046884794F85C102020B0
:100B30008840304231D021680968C9062DD5A860A7
:100B400094F8350005282068016806D0490347D588
:100B5000006800031DD4616C1CE021F016010160E7
:100B60002068416921F080014161206C08B9A06CC6
:100B700020B12068016821F00801016094F85C1040
:100B80003F208840A86084F8358084F83490216D37
:100B90001FE0E16B09B120468847606D00282BD02B
:100BA000606DC00714D0052084F835002068016806
:100BB00021F0010101600098401C0090B84203D868
:100BC00020680068C007F6D184F8358084F8349036
:100BD000E16C002910D001B02046BDE8F043084781
:100BE0000168C905D5D4016821F01001016084F8BD
:100BF000358084F83490CCE7BDE8F8830C00002001
:100C00002DE9F041044600F06FF906465CB1022080
:100C100084F83500002584F834502068016821F0FC
:100C2000010101600DE00120BDE8F08100F05CF9F8
:100C3000801B052805D920206065032084F8350035
:100C4000F2E720680068C007F0D1226811682048E8
:100C50000140D4E901031843D4E903363343184370
:100C600063691843A3691843E3691843236A184367
:100C70000843616A042903D1D4E90B1319430843DB
:100C8000106020684069666A20F0070130460E4314
:100C9000012704280CD1A06A0643E06A40B120462F
:100CA000FFF77CFC20B14020606584F83570BAE71E
:100CB000206846612046FFF75DFC94F85C203F21E8
:100CC00091408160656584F835700020ACE70000D4
:100CD0003F8010E070B5044600F006F90546601C40
:100CE00002D004480078044400F0FEF8401BA04203
:100CF000FAD370BD000000202DE9F84FDFF8ACA159
:100D0000002201240AF1040B03254FF00F090BF117
:100D1000040E00BF0B6804FA02F63340B3426ED1F2
:100D20000F7907F00307012F01D0022F16D1876832
:100D30004FEA420805FA08FC27EA0C07D1F80CC074
:100D40000CFA08FC4CEA070CC0F808C04768B74327
:100D50000E79C6F3001696403E4346600E79F64380
:100D6000B6070AD0C6684FEA420C05FA0CF7BE4334
:100D70008F6807FA0CF73743C7600E7906F0030651
:100D8000022E10D1D60800EB8608D8F8206057074D
:100D90004FEAD76C09FA0CF7BE430F6907FA0CF754
:100DA0003743C8F8207006684FEA420C05FA0CF782
:100DB000BE430F7907F0030707FA0CF737430760C4
:100DC0004E6816F4403F6BD0394E376847F4804781
:100DD0003760366822F0030706F480460096354EE9
:100DE00007EB060CDCF8086897074FEA177809FA52
:100DF00008F7BE43304FB84202D100271FE04FE052
:100E00002E4FB84201D1012719E02D4FB84201D130
:100E1000022714E02B4FB84201D103270FE02A4FDD
:100E2000B84201D104270AE0284FB84201D1052772
:100E300005E0274FB84201D1062700E0072707FA4F
:100E400008F73743CCF80878DAF800605746D1F84D
:100E500004C09E435FEACC3C00D51E433E60DBF8F5
:100E600000605F46D1F804C09E435FEA8C3C00D529
:100E70001E433E60DEF800607746D1F804C09E4312
:100E80005FEACC2C00D51E433E60084F0C373E680D
:100E9000D1F804C09E435FEA8C2C00D51E433E600F
:100EA000521C102AFFF436AFBDE8F88F003C014019
:100EB000443802400030014000000240000402407B
:100EC00000080240000C02400010024000140240E2
:100ED000001802400069084000D0012070470AB1A4
:100EE000816170470904FBE7014880687047000092
:100EF00000000020704770472DE9F041016804466A
:100F00004A694E6890F83E000025D743FA0506D49A
:100F1000F243D20503D46FF4807201254A61B9050A
:100F200008D4F143C90505D422686FF4007145F077
:100F300002055161790525D4F143C90522D4638D99
:100F400094F83D10226B202808D13BB9212910D0FC
:100F500029290ED0282901D1212A0AD022686FF42C
:100F60008061516145F00405102806D0402804D066
:100F700008E0204602F0DAFC04E02068016841F451
:100F800000710160380508D4F043C00505D421681C
:100F90006FF4006045F008054861002D07D0206C13
:100FA000284320642046BDE8F04102F077B8BDE850
:100FB000F0812DE9F047026800215368C66A90F875
:100FC0003E4090F83D50102C12D0402C10D0046CB4
:100FD000002C7DD05469E443A6077AD4DE43B605DD
:100FE00077D4036C03B19169BDE8F04702F07ABC95
:100FF000976951694FF42A0CC9435FEAC1784FF0F1
:101000002A4904D066452AD04E4528D010E0DE4358
:10101000B6050DD4C16A614501D1012103E0C16A61
:10102000494501D10821C162BDE8F04702F0C4BBC7
:101030000E0716D4DE43B60513D4416CC9B2116154
:10104000416B09B1C96B29B9816B002907D0C96B04
:10105000002904D00068416841F400614160BDE8A6
:10106000F0878E0706D4DE43B60503D4BDE8F0470B
:1010700002F016BBFE43526876074FEA02521DD4B7
:10108000002AECDB0A0608D4DA43520505D44907E6
:1010900005D5BDE8F04702F0A7BA4907DFD4D94328
:1010A0008905DCD4212D05D0402CD8D1BDE8F047EE
:1010B00002F0C8BBBDE8F04702F054BA002ACEDB0C
:1010C0004A060BD4DA43520508D4490708D501E093
:1010D0000DE00EE0BDE8F04702F00CB94907BED4C0
:1010E000D9438905BBD4BDE8F04702F09AB89169AD
:1010F00070E7E10606D4D943890503D4BDE8F0477B
:1011000002F056BC2821212D27D0292D25D0650697
:1011100055D4DD436D0552D4640752D590F83D3067
:10112000448D002C9BD01269446A2270426A521C82
:101130004262428D521E4285428D002A8FD12A2B57
:101140008DD10268536823F48063536022220263C6
:1011500080F83D1000F0DCFA81E7250623D4DD435A
:101160006D0520D4640720D590F83D30448D002CC7
:10117000F2D0446A24781461426A521C4262428D61
:10118000521E4285428D002AE6D1292BE4D1026805
:10119000536823F4806353602122026380F83D107A
:1011A00000F0B7FA5BE76107D6D4D9438905D3D4F9
:1011B000418D0029D0D0416A097811610AE06107A8
:1011C000CAD4D9438905C7D4418D0029C4D0116937
:1011D000426A1170416A491C4162418D491E418534
:1011E0003DE7704770B5040025D094F83D00002518
:1011F00020B984F83C50204600F044FA242084F8BA
:101200003D002068016821F001010160206801684B
:1012100041F4004101602068016821F4004101604F
:1012200000F0ACFB4D4A6168914201D84C4900E0A6
:101230004C49884201D2012070BD4B492368B0FB64
:10124000F1F15E6826F03F060E435E6063689342EC
:1012500006D94FF4967359434FF47A73B1FBF3F107
:101260002368491C1E6A26F03F06314319626168F3
:10127000914210D84900401EB0FBF1F2521CC2F35B
:101280000B02042A01D2042022E0B0FBF1F0401C42
:10129000C0F30B001CE0A268F2B301EBC10303EB47
:1012A0000116431EB3FBF6F35B1C43F480431B059E
:1012B00049D092B301EBC10202EB0111401EB0FB19
:1012C000F1F0401CC0F30B0040F4804040F40040BB
:1012D0002168CA694CF6FF739A431043C861D4E988
:1012E000071001432068026822F0C0021143016028
:1012F000D4E9030101432068826848F2FF339A432E
:1013000011438160D4E9050108432168CA6822F0CD
:10131000FF021043C86001E00EE016E0206801689B
:1013200041F0010101602564202084F83D0025631F
:1013300084F83E50002070BD01EB4106431EB3FB14
:10134000F6F35B1CB3E70120C2E701EB4101401E4D
:10135000B0FBF1F0401CC0F30B00B7E7A086010022
:1013600080841E0000093D0040420F007047704716
:10137000704700002DE9F84F1F4690468A46044604
:10138000DDF82890FFF7B0FD054694F83D002028D1
:1013900075D1192301226C492046009502F0DCFB2F
:1013A0000028F5D194F83C00012868D0012084F889
:1013B0003C0020680168C90703D1016841F00101C0
:1013C00001602068016821F400610160222084F836
:1013D0003D00102084F83E0000262664C4F82480D6
:1013E0006785608D20855948E0622B464A46514604
:1013F000204601F0F3FF002878D1208D544F68B1CA
:10140000012814D002282068016816D041F48061B8
:101410000160206841698069009087E02068416927
:1014200081690091016841F4007101607EE02068EB
:10143000016821F480610160F0E721F480610160BE
:101440002068016841F40061E2E7032848D80128D8
:101450000AD0022814D04B46002239462046009577
:1014600002F07AFBD8BB27E02A464946204602F024
:10147000F2FBA0BB20680069616A08704DE061E082
:101480004B46002239462046009502F065FB30BBF2
:101490002068016841F40071016020680069616A98
:1014A0000870606A401C6062218D491E2185618D33
:1014B000491E618521682EE02068016821F4806161
:1014C000016020680069616A0870606A401C60629F
:1014D000208D401E2085608D401E6085D0E705E090
:1014E0002A464946204602F0B6FB10B10120BDE86D
:1014F000F88F20680069616A0870606A401C606249
:10150000218D491E2185618D491E618521684A69A9
:10151000D24352070AD409690170606A401C6062B4
:10152000208D401E2085608D401E6085208D002806
:101530008BD1202084F83D0084F83E6084F83C6024
:101540000020D4E70220D2E7020010000000FFFFD5
:10155000040001002DE9F84F1F4690468A460446D4
:10156000DDF82890FFF7C0FC054694F83D002028E0
:101570007FD11923012240492046009502F0ECFA60
:10158000002876D194F83C00012872D0012084F81C
:101590003C0020680168C90703D1016841F00101DE
:1015A00001602068016821F400610160212084F855
:1015B0003D00102084F83E0000262664C4F82480F4
:1015C0006785608D20852D48E0622B464A4651464E
:1015D000204601F079FF90B9206841698069009048
:1015E00036E02A464946204602F068FB50B1206C9E
:1015F000042804D12068016841F4007101600120D1
:10160000BDE8F88F606A216800780861606A401C54
:101610006062618D491E6185218D491E89B22185D7
:1016200022685369DB435B070BD451B1007810612A
:10163000606A401C6062608D401E6085208D401E87
:1016400020852A464946204602F060FA0028CED17D
:10165000208D0028C5D154F83D0B016841F400717C
:101660000160202004F81E09E67766770020C7E7AE
:10167000FFE70220C4E70000020010000000FFFFA7
:101680007047704710B586B0044614216846FEF7CF
:10169000D5FE1C492068884231D11B4800210268D0
:1016A00042F002020260006800F0020005904FF470
:1016B000107000901220CDE9010103200390042056
:1016C000049069461148FFF717FB0F481030016876
:1016D00041F4001101600068002200F40010059040
:1016E00011461F2000F07EF81F2000F06DF8002248
:1016F0001146202000F076F8202000F065F806B0B2
:1017000010BD000000540040303802400004024088
:1017100070477047024881680278114481607047C1
:10172000000000200B4810B5016841F40071016011
:10173000016841F480610160016841F480710160D9
:10174000032000F06FF8002000F006F800F024F805
:10175000002010BD003C024070B50D4D04464FF412
:101760007A712878B1FBF0F00A490968B1FBF0F012
:1017700000F019FD48B9102C07D200222146501E56
:1017800000F030F800206C6070BD012070BD0000DA
:10179000000000200C0000200A4808B5016841F450
:1017A00080410160006800F4804000900548001FFF
:1017B000016841F080510160006800F080500090A5
:1017C00008BD000044380240002809DB00F01F0279
:1017D000012191404009800000F1E020C0F8001193
:1017E00070470000F0B40E4B1B680C46C3F3022395
:1017F000C3F10705042D00D90425191D072901D2BD
:10180000002300E0DB1E012606FA05F1491E2140F7
:1018100099409E40761E16403143F0BC03F02CB92F
:101820000CED00E0064900F0070208684FF6FF03E0
:10183000184040EA0220034A104308607047000045
:101840000CED00E00000FA052DE9F0470E4605001A
:1018500065D0DFF81481D8F80000F7B200F0070077
:10186000B04207D288F80070D8F8000000F00700F6
:10187000B04254D128683D4C810712D5400703D5AA
:10188000206840F4E05020602878000703D52068E5
:1018900040F4604020602068A96820F0F000084310
:1018A00020602878C0072DD03049686808390128A1
:1018B00012D0022813D0032811D009688907002903
:1018C0002DDA216821F0030101432160FFF70CFBB1
:1018D000814641F2883A0EE009688903EFE709681A
:1018E0008901ECE7FFF700FBA0EB0901514502D9A4
:1018F0000320BDE8F0872068696800F00C00B0EBB9
:10190000810FEFD1D8F80010404601F00701B14235
:1019100007D90770006800F00700B04201D001202D
:10192000E7E72878400705D52068E96820F4E0500B
:10193000084320602878000706D52068296920F42C
:10194000604040EAC100206000F038F82168084A91
:10195000C1F30311515CC84006490860064800689D
:10196000FFF7FAFE0020C4E7003C024008380240BE
:10197000924D00080C000020040000200448054996
:1019800000680968044AC1F38221515CC84070476D
:101990000C00002008380240A24D00080448054908
:1019A00000680968044AC1F34231515CC84070477D
:1019B0000C00002008380240A24D0008154810B560
:1019C000006810F00C02144813D04110042A0FD004
:1019D000082A0ED10F4C241F2268236802F03F0210
:1019E0005B0207D52068C0F38810A0FB010106E068
:1019F000084610BD2168C1F38811A1FB0001002336
:101A0000FEF75CFC2168C1F30141491C4900B0FBB1
:101A1000F1F010BD083802400024F4002DE9F84F21
:101A200004006ED02078DFF86093C007A9F10405A8
:101A30004AD009F104000168C1F38101012908D0ED
:101A40000068C0F3810002280AD1D9F800004002E2
:101A500006D52868800337D560680028E1D033E0D8
:101A60006068B0F5803F10D0B0F5A02F286810D086
:101A700020F480302860286820F480202860606886
:101A8000A8B1FFF731FA06460DE0286840F480302F
:101A9000F4E740F480202860F7E700BFFFF724FA5E
:101AA000801B642873D828688003F7D50CE0FFF703
:101AB0001BFA064605E000BFFFF716FA801B6428F4
:101AC000F0D828688003F7D42078DFF8C082800738
:101AD0004FF0000A3ED5AC48001D016811F00C0F14
:101AE00008D00068C0F3810002280BD1D9F80000AB
:101AF000400207D42868800716D5E068012800D185
:101B000012E03CE1E068B8B10120C8F80000FFF73E
:101B1000EBF9064605E000BFFFF7E6F9801B022857
:101B2000C0D828688007F7D52868216920F0F80018
:101B300040EAC10028600DE0C8F800A0FFF7D4F922
:101B4000064604E0FFF7D0F9801B02281FD828685A
:101B50008007F7D42078000722D58B4E8C48616926
:101B6000703671B101210160FFF7BEF9074604E04C
:101B7000FFF7BAF9C01B022809D830688007F7D5EB
:101B80000EE0C0F800A0FFF7AFF9074605E082E0DD
:101B9000FFF7AAF9C01B02287DD830688007F7D468
:101BA0002078400768D5DFF8E0B100270BF13C0B47
:101BB000DBF80000C0000BD4DBF8001041F08051CE
:101BC000CBF80010DBF80000012700F080500090F7
:101BD000704E3068C00510D4306840F480703060BA
:101BE000FFF782F9009005E0FFF77EF90099401AAF
:101BF000022850D83068C005F6D5634EA0686C3610
:101C000001280FD00528306810D020F00100306086
:101C1000306820F004003060A068B8B1FFF764F9C4
:101C200000900FE0306840F00100F4E740F004005D
:101C30003060F7E7FFF758F90099411A41F2883010
:101C4000814268D830688007F4D50EE0FFF74CF980
:101C5000009007E0FFF748F90099411A41F28830F7
:101C6000814258D830688007F4D42FB1DBF80010D7
:101C700021F08051CBF80010A069D8B34249091D6A
:101C80000968C1F3810102294CD00228504607D0CF
:101C9000C8F8600000E03EE0FFF726F904463DE0AA
:101CA0004746C8F86000FFF71FF9064605E000BF89
:101CB000FFF71AF9801B02282DD828688001F7D475
:101CC000F4E907010843E168334A490802EB01419E
:101CD000A26841EA82110843217C40EA0160217D2B
:101CE00040EA0171C9F8001001203866FFF7FCF8DE
:101CF000044606E045E000BFFFF7F6F8001B0228A7
:101D000009D828688001F7D53BE000BFFFF7ECF861
:101D1000001B022802D90320BDE8F88F2868800143
:101D2000F4D42EE00128F7D0D9F80000E26900F4DD
:101D30008001914223D1226A00F03F0191421ED1DD
:101D400047F6C071626A0140B1EB821F17D1A26AE7
:101D50004FF0FF3300F4403103EB5202B1EB024F7E
:101D60000DD194F82C2000F07061B1EB026F06D118
:101D700094F8301000F0E040B0EB017F01D001207A
:101D8000CAE70020C8E700000438024000004742CC
:101D9000800E4742007000400000FFFF70470000C7
:101DA00038B5016804464A688868C043430606D5CA
:101DB000C30704D1D3435B0601D4216C05E083073C
:101DC00008D4D3431B0605D4616C01B02046BDE89E
:101DD00030400847830603D5430601D5C30551D4D7
:101DE000D3439B064ED443060AD494F85130032BB8
:101DF00049D0636D43F004036365CB688B6800933F
:101E0000830609D4636D43F0010363658B68009317
:101E10000B6823F040030B60C00506D4606D40F0F2
:101E200008006065206880680090606D002829D0F7
:101E30002068416821F0E0014160012084F85100F0
:101E4000900701D4D00722D02068416821F0030117
:101E50004160114DE06C40B10565E06CFEF7EAFDB4
:101E600018B1606D40F040006065A06C002809D09A
:101E70000565A06CFEF7DEFD002803D0606D40F024
:101E80004000606538BDC8688868009038BD20464D
:101E9000FFF784FF38BD00008941000870B50400D9
:101EA00009D0606A002540B125616561A56294F89A
:101EB000510040B10CE0012070BD6068B0F5827F38
:101EC000F4D0E561F2E784F85050204600F044F881
:101ED000022084F851002068016821F0400101606F
:101EE000A088218900F4827001F404410843A1898B
:101EF00001F400610843217C01F002010843217DC7
:101F000001F001010843218B01F400710843217F96
:101F100001F03801084394F8201001F080010843D3
:101F2000218D01F40051084321680860A069042153
:101F300001EA104094F8241001F0100108432168D0
:101F400048602068C16921F40061C16165650120B4
:101F500084F85100002070BDF0B587B0064614210A
:101F60006846FEF76BFA30493068884259D12F48ED
:101F70000024016841F480510160006800F4805041
:101F800005902A481438016841F001010160006899
:101F9000694600F001000590E02000900220CDE9A4
:101FA000010403200390052004902148FEF7A4FEBD
:101FB000214D20484FF4806728604FF0C060C5E98C
:101FC0000104C5E903476C61AC61EC612C622846F1
:101FD0006C62FEF715FE08B1FEF7E1FCF564AE6336
:101FE0001448164D303005F1080128604FF080602C
:101FF0006860402081E891006C61AC61EC612C620A
:1020000028466C62FEF7FCFD08B1FEF7C8FCB5641B
:10201000002211462320AE63FFF7E4FB2320FFF7E5
:10202000D3FB07B0F0BD000000300140443802404F
:10203000000002401064024034020020940200209C
:102040002DE9F84F044690F8500000271D4616462B
:10205000894601280DD04FF0010B84F850B0FEF7EF
:1020600043FF804694F85100BA46012804D0022765
:1020700093E00220BDE8F88FB9F1000F73D0002E75
:1020800071D0032084F85100C4F854A0C4F83090F3
:10209000A686E686C4F838A0A4F83CA0A4F83EA022
:1020A000C4F844A0C4F840A0A068B0F5004F09D11E
:1020B0002068016821F0400101602068016841F456
:1020C0008041016020680168490603D4016841F03D
:1020D00040010160E068B0F5006F606803D030B384
:1020E000012E24D041E008B1012E1CD1206B2168C3
:1020F0000088C86006E020688168890709D5216BDF
:102100000988C160206B801C2063E08E401EE08641
:1021100009E0FEF7E9FEA0EB0800A84202D3681C24
:1021200001D031E07DB3E08E0028E4D120E0206BC7
:1021300021680078087306E020688168890709D55E
:10214000216B09780173206B401C2063E08E401ED8
:10215000E0860AE0FEF7C8FEA0EB0800A84203D321
:10216000681C02D010E017E06DB1E08E0028E3D1CA
:1021700042462946204602F00FF808B1202060654B
:10218000A06818B106E0FFE7032706E02068C168F1
:1021900080680090606D00B1012784F851B084F828
:1021A00050A0384666E710B5401EB0F1807F01D3DD
:1021B000012010BD4FF0E02460610F21601702F094
:1021C0005BFC0020A06107202061002010BD70474B
:1021D0007047000070B590F83C20012A32D00124ED
:1021E00080F83C40022280F83D2003685A689D68D0
:1021F00022F070060A6832435A60134B02689A4212
:1022000014D0B2F1804F11D0104B9A420ED0104B27
:102210009A420BD00F4B9A4208D00F4B9A4205D0EE
:102220000E4B9A4202D00E4B9A4204D1496825F0D7
:1022300080031943916080F83D40002180F83C10F4
:10224000084670BD022070BD00000140000400403F
:1022500000080040000C0040000401400040014024
:102260000018004010B5040003D094F83D0010B1F0
:1022700007E0012010BD002084F83C00204600F05B
:102280001FF8022084F83D00211D206802F078F834
:10229000012084F8460084F83E0084F83F0084F86A
:1022A000400084F8410084F8420084F8430084F838
:1022B000440084F8450084F83D00002010BD000073
:1022C00010B586B0044614216846FEF7B7F8324BC5
:1022D000216800223148994225D1016841F002016C
:1022E0000160006800F0020005902C481438016875
:1022F00041F0040101600068694600F004000590A7
:102300004FF4A07000900220CDE901020320CDE936
:1023100003202348FEF7F0FC002211462E20FFF791
:1023200061FA2E2010E01F4A914211D1016841F458
:10233000803101600068002200F480300590114671
:102340001820FFF74FFA1820FFF73EFA06B010BD2D
:10235000154A91420ED1016841F4003101600068D4
:10236000002200F40030059011461920FFF73AFAD8
:102370001920E9E70D4A9142E8D1016841F4802132
:1023800001600068002200F48020059011461A20A8
:10239000FFF728FA1A20D7E700040140443802402A
:1023A0000008024000400140004401400048014054
:1023B00090F83D10012901D001207047022180F8DA
:1023C0003D1000681149884214D0B0F1804F11D0FF
:1023D0000F4988420ED00F4988420BD00E498842DF
:1023E00008D00E49884205D00D49884202D00D49D7
:1023F000884204D1816801F00701062903D00168F1
:1024000041F0010101600020704700000000014020
:102410000004004000080040000C0040000401409F
:10242000004001400018004070B5044690F83C00A0
:102430000025012817D0012684F83C60022084F88A
:102440003D002068826822F0770222F47F42826099
:102450000868502838D00DDC20284FD005DC90B318
:10246000102811D14AE0022070BD302846D0402803
:102470000AD13BE060282FD070280DD0B0F5805FE6
:1024800003D0B0F5005F12D0012584F83D60002034
:1024900084F83C00284670BDCB68D1E90121206852
:1024A00001F0DFFF2068816841F0770109E0CB6827
:1024B000D1E90121206801F0D4FF2068816841F44E
:1024C00080418160E1E719E0CA684968206802F04C
:1024D000E3F85021206806E0CA684968206802F0E5
:1024E0002DF96021206801F0C6FFCEE7CA6849686F
:1024F000206802F0D1F840212068F4E72268014604
:102500001046F0E770472DE9F041054690F83C0091
:1025100000260C46012810D0012085F83C0072B13D
:10252000042A1CD0082A2CD00C2A50D001260020C6
:1025300085F83C003046BDE8F0810220FBE7D4E995
:102540000012E368286802F0B9F82868816921F070
:102550000C01816128688169A26811430FE0D4E908
:102560000012E368286802F0FBF82868816921F40A
:102570004061816128688169A26841EA0221816124
:10258000D5E72868D4E9002C277B016A21F4807103
:102590000162C169036A21F0030141EA0C0121F0E3
:1025A000F00C39074FF420674CEA116123F42063E3
:1025B00007EA02221A43C16102622868C16921F058
:1025C0000C01C1612868C169A268114328E028682C
:1025D000D4E90027E168036A23F480530362D0F84A
:1025E0001CC0036A2CF4407C4CEA07274FF6FF7CA2
:1025F00027F470470CEA013139434FF4204723F4A4
:10260000204307EA02321A43C16102622868C169A5
:1026100021F44061C1612868C169A26841EA0221D0
:10262000C16184E710B5040003D094F83D0010B1F7
:1026300007E0012010BD002084F83C00204600F097
:102640001EF8022084F83D00211D206801F098FE4C
:10265000012084F8460084F83E0084F83F0084F8A6
:10266000400084F8410084F8420084F8430084F874
:10267000440084F8450084F83D00002010BD7047F8
:1026800010B5044651B104290DD0082910D094F892
:10269000410094F84520012811D10EE094F83E0045
:1026A00094F84220F7E794F83F0094F84320F2E7CB
:1026B00094F8400094F84420EDE7012A01D001206D
:1026C00010BD022079B3042933D0082936D084F80C
:1026D000410084F845000122206801F0B5FE1A4946
:1026E0002068884214D0B0F1804F11D01749884239
:1026F0000ED0174988420BD01649884208D0164997
:10270000884205D01549884202D01549884204D133
:10271000816801F00701062903D0016841F0010139
:102720000160002010BDFFE784F83E0084F84200FD
:10273000D1E784F83F0084F84300CCE784F84000F8
:1027400084F84400C7E70000000001400004004096
:1027500000080040000C004000040140004001401F
:102760000018004070B50446006801694FF000058C
:10277000C943890715D4C168C943890711D4E91E23
:10278000016101202077206880698007204602D0FF
:10279000FFF7B8FE04E000F0EBF8204600F07DF90A
:1027A000257720680169C943490717D4C168C9431F
:1027B000490713D46FF004010161022020772068DB
:1027C000806910F4407F204602D0FFF79BFE04E0B2
:1027D00000F0CEF8204600F060F925772068016906
:1027E000C943090716D4C168C943090712D46FF059
:1027F00008010161042020772068C0698007204615
:1028000002D0FFF77FFE04E000F0B2F8204600F0AF
:1028100044F9257720680169C943C90617D4C168FE
:10282000C943C90613D46FF0100101610820207755
:102830002068C06910F4407F204602D0FFF762FE96
:1028400004E000F095F8204600F027F9257720688D
:102850000169C943C90708D1C168C943C90704D17F
:10286000891E0161204600F07DF920680169C94395
:10287000090609D4C168C943090605D46FF080016F
:1028800001612046FFF7A3FC20680169C94349069E
:1028900009D4C168C943490605D46FF040010161FC
:1028A000204600F08BF920680169C94389060BD4E2
:1028B000C168C943890607D46FF020010161204631
:1028C000BDE87040FFF784BC70BD000070B586B0F5
:1028D000044614216846FDF7B1FD1F482568002114
:1028E0001E4A02230324854210D1106840F01000D4
:1028F0001060106800F01000059020200090CDE9D5
:102900000131CDE90314694615480DE0154E16480E
:10291000B5420DD1156845F020051560126802F02A
:102920002002059240220FE0FEF7E6F906B070BDE6
:102930000E4EB542FAD1156845F0200515601268B3
:1029400002F02002059280220092CDE90131CDE90A
:1029500003146946E8E700000040014030380240B7
:1029600000100240004401400014024000480140B1
:10297000704770B5044690F83C0000260D460128CB
:102980000FD0012084F83C006AB1042A1DD0082A27
:102990002FD00C2A3FD00126002084F83C0030467E
:1029A00070BD022070BD206801F06EFD2068816955
:1029B00041F0080181612068816921F00401816191
:1029C000206881692A69114311E0206801F08CFDBB
:1029D0002068816941F4006181612068816921F486
:1029E00080618161206881692A6941EA02218161EF
:1029F000D2E7206801F0AEFD2068C16941F008010E
:102A0000C1612068C16921F00401C1612068C16908
:102A10002A69114311E0206801F0D0FD2068C169E6
:102A200041F40061C1612068C16921F48061C16124
:102A30002068C1692A6941EA0221C161ACE710B589
:102A4000040003D094F83D0010B107E0012010BD50
:102A5000002084F83C00204600F01EF8022084F894
:102A60003D00211D206801F08BFC012084F8460008
:102A700084F83E0084F83F0084F8400084F8410068
:102A800084F8420084F8430084F8440084F8450048
:102A900084F83D00002010BD7047704710B5044613
:102AA000022249B104290ED0082913D094F841001C
:102AB000012816D0012010BD94F83E000128F9D15C
:102AC00084F83E200FE094F83F000128F2D184F80A
:102AD0003F2008E094F840000128EBD184F8402022
:102AE00001E084F841200122206801F0ADFC164984
:102AF0002068164A884201D0904203D1436C43F4C7
:102B0000004343642068884213D0B0F1804F10D056
:102B10000F4988420DD00F4988420AD00E49884299
:102B200007D0904205D00D49884202D00C49884216
:102B300004D1816801F00701062903D0016841F042
:102B400001010160002010BD0000014000040140AF
:102B50000004004000080040000C0040004001401C
:102B600000180040704770B5044690F83C000128FA
:102B700012D0012584F83C50022084F83D00204604
:102B800001F044FD01004FF0000007D084F83D50F3
:102B900084F83C00012070BD022070BD2168CA6825
:102BA00022F04002CA602168CA6822F48042CA60EA
:102BB00084F83D5084F83C00002070BD7047704799
:102BC00070470000F8B5016804460868CA684B6998
:102BD00010F00F0F4FF0000559D003F0010602F47A
:102BE0009077374365D0C10705D0D10503D5216C57
:102BF00041F001012164410705D5D90703D0216CBB
:102C000041F002012164810705D5D90703D0216C69
:102C100041F004012164010707D502F0200131438E
:102C200003D0216C41F008012164216C00293AD0C5
:102C3000800604D5900602D5204601F0DBFD206811
:102C40004069216CC0F38010090700D460B32046AE
:102C500001F0A9FD20684069400621D520681430A4
:102C600050E8001F21F0400140E80012002AF5D191
:102C7000A06BA8B16C490165A06BFDF7DBFE0028D5
:102C800011D0A06B016D01B0BDE8F040084783068C
:102C90000FD593060DD52046BDE8F84001F0AABD3A
:102CA0002046FFF78DFFF8BD2046FFF789FF25641A
:102CB000F8BD266B2023012E79D1C60677D5D6061E
:102CC00075D50868486800904869400640D5A16BF2
:102CD000086840680004000CEAD0A28D8242E7D95F
:102CE000E085C869B0F5807F2DD020680C3050E8B1
:102CF000001F21F4807140E80012002AF5D12068FD
:102D0000143050E8001F21F0010140E80012002AB1
:102D1000F5D12068143050E8001F21F0400140E850
:102D20000012002AF5D184F83E30256320680C306B
:102D300050E8001F21F0100140E80012002AF5D1F0
:102D4000A06BFDF72EFEA08DE18D401A81B229E027
:102D5000A08DE18D401A81B2E08D0028A8D0002915
:102D6000A6D020680C3050E8002F22F4907240E882
:102D70000026002EF5D12068143050E8002F22F0F4
:102D8000010240E80026002EF5D184F83E3025638C
:102D900020680C3050E8002F22F0100240E8002399
:102DA000002BF5D12046FFF70AFFF8BDFFE7050627
:102DB0002BD5150629D594F83D002128F5D1A0681A
:102DC000B0F5805F01D12069B0B1206A411C216259
:102DD000216800784860E08C401E0004000CE0840C
:102DE000E3D12068C16821F08001C1602068C1681A
:102DF00041F04001C160D8E7206A0088C0F30800B4
:102E00004860206A801C2062E5E74006CDD5500668
:102E1000CBD5CA68204622F04002CA6084F83D3013
:102E200000F0CFF8C1E700009747000870B5040034
:102E300004D094F83D00002510B106E0012070BDDB
:102E400084F83C50204600F023F8242084F83D000C
:102E50002068C16821F40051C160204601F02AFDBC
:102E60002068016921F4904101612068416921F0E5
:102E70002A0141612068C16841F40051C1602564A4
:102E8000202084F83D0084F83E00002070BD000042
:102E900010B586B0044614216846FDF7CFFA1849EC
:102EA0002068884229D117480021026842F01002A8
:102EB0000260006800F010000590124814380268A3
:102EC00042F001020260006800F0010005904FF43A
:102ED000C06000900220CDE901010320039007208B
:102EE000049069460848FDF707FF00221146252097
:102EF000FEF778FC2520FEF767FC06B010BD000049
:102F000000100140443802400000024070470000B9
:102F10002DE9F843044690F83D001F4616460D463D
:102F200020284CD1C5B1BEB194F83C00012846D050
:102F3000012084F83C004FF00008C4F840802120B4
:102F400084F83D00FDF7D0FFA6848146E684A068A2
:102F5000B0F5805F03D004E00120BDE8F88320696C
:102F600028B12E465FF0000584F83C800EE0002674
:102F7000FAE78021204601F02DFDA0B9AEB116F888
:102F8000010B21684860E08C401EE084E08C4B46D9
:102F90004FF0000200970028EBD14FF0400120468F
:102FA00001F018FD30B10320D7E735F8020BC0F36C
:102FB0000800E6E7202084F83D000020CDE702204D
:102FC000CBE77047FEE700000148FDF795BF000022
:102FD000240000200148FDF7ECBF00002400002081
:102FE00038B5806B002190F83D202B4B46F2A81499
:102FF0001B68B3FBF4F3C3EBC30303EB830300933E
:103000003BB15B1E009303681B689B0505D5009BC5
:10301000F6E7036C43F020030364436B03B1D96309
:10302000836B03B1D96303681C6824F480641C605B
:103030004185436B03B11965836B03B1196503685F
:103040001C6824F001041C6090F83D402023602C93
:103050000BD0282434EA02020FD080F83D3080F8EB
:103060003E1000BFFEF7BDF838BD80F83D3080F857
:103070003E100164FDF73EFF38BD0268136843F05F
:10308000010313600268136843F4806313600163F3
:1030900080F83D40E6E700000C00002070B50446D3
:1030A00090F83D0094F83E10102901D0402906D137
:1030B000222804D121680A6822F400620A602821CB
:1030C00031EA00024FF000054FF0200626D02168BB
:1030D0004968090505D4602803D084F83D6084F868
:1030E0003E50256320684168090537D5416821F4C1
:1030F00000614160606B90F835203C49012A11D095
:103100000165606BFDF796FC38B32068016821F01B
:103110000101016084F83D60606B1CE0256384F868
:103120003D10DFE7A06B0165A06BFDF783FCA0B14C
:1031300020684169C943490605D40069616A08707D
:10314000606A401C60622068016821F00101016032
:1031500084F83D60A06B016D884710E094F83D1045
:10316000602910D04169C943490605D40069616AE4
:103170000870606A401C60622046FEF732F8206CDE
:10318000C1071CD115E084F83D6025644169C9433D
:10319000490605D40069616A0870606A401C606273
:1031A0002068016821F0010101602046FDF7A2FEC0
:1031B000E5E7810703D4410701D4000704D520685F
:1031C000416821F4E061416094F83D00216C4907B9
:1031D0000BD5282809D10648E062256384F83D60B4
:1031E00084F83E502046FEF7C1F870BDE12F00087C
:1031F0000000FFFF01684A69D24352050FD46FF403
:1032000080624A61002140F8301F2022427381739E
:10321000026942F00402026101730120704700203C
:10322000704710B5C26A438D0168042B06D0438DE8
:10323000032B08D0438D022B1DD012E04A6822F4E4
:1032400080624A600CE04B6823F480634B60042A80
:1032500006D0022A04D001680A6822F480620A605B
:1032600001680969426A1170416A491C4162418DD5
:10327000491E418510BD012A30D0102A2ED0042AC3
:1032800030D0022A2ED00A6842F400720A60016827
:103290000969426A1170416A491C4162428D521E9D
:1032A0004285026812690A70416A491C4162418D77
:1032B000491E418501684A6822F440724A60202113
:1032C00080F83D1090F83E200021402A80F83E1002
:1032D0000CD012210163FEF74AF810BD0A6822F4EF
:1032E0008062D3E70A6842F48062CFE70163FEF7A9
:1032F000C7F910BD38B590F83D10222914D1418D81
:10330000032912D901680969426A1170416A491C8E
:103310004162418D491E4185418D032904D10068D8
:10332000416821F48061416038BDC26A022AFBD045
:10333000012901D00029F7D1274946F2A81300221C
:103340000968B1FBF3F101EB8101009101682023D1
:10335000009C641E009422D00C68A405F8D40C686C
:1033600024F480640C6001684C6824F4E0644C60D0
:1033700001680969446A2170416A491C4162418DB2
:10338000491E418580F83D3090F83E1080F83E207F
:1033900040291DD012210163FDF7E9FF38BD046CFF
:1033A00044F0200404644C6824F4E0644C60016838
:1033B0000969446A2170416A491C4162418D491E74
:1033C000418580F83D3080F83E20FDF70AFF38BD8A
:1033D0000263FEF755F938BD0C0000202DE9F84FC7
:1033E0000446C06A1E4693460D4621680A6842F4A8
:1033F00080620A60082807D0012805D010F5803FB8
:1034000002D0206B112804D12068016841F480713A
:1034100001604FF001195B460022494620460096A4
:1034200000F09AFB4FF4007840B120680068C005B6
:1034300001D5C4F840800320BDE8F88F2069DFF88B
:1034400084A0B0F5804F0FD00620216800EAD51780
:1034500047F0F000086133465A460AF1060120465B
:1034600000F0AEFB58BB03E0E8B240F001001CE006
:103470002168E8B2086133465A465146204600F0BA
:103480009FFBE0B92068416981690091016841F4BE
:10349000807101605B46002249462046009600F09C
:1034A0005BFB0028C1D147F0F10021680861334679
:1034B0005A465146204600F083FB0028BCD001202C
:1034C000BAE7000002000100F8B50446C06A1E46D3
:1034D0000D461746082807D0012805D010F5803F73
:1034E00002D0206B122804D12068016841F4807159
:1034F0000160134600224FF001112046009600F0B3
:103500002BFB40B120680068C00502D54FF4007065
:1035100020640320F8BD2069B0F5804F0ED006204E
:10352000216800EAD51040F0F000086133463A46C1
:103530000B49204600F044FB78B902E005F0FE009C
:1035400000E0E8B221680861054933463A46891F20
:10355000204600F035FB0028DCD00120F8BD00003B
:103560000800010010B5C26A90F83D1021290BD166
:10357000418D51B1416A026809781161416A491C63
:103580004162418D491E418510BD20230021082A3A
:1035900013D0202A11D012F5803F0ED00268546853
:1035A00024F4E06454601122026380F83E1080F835
:1035B0003D3000BFFDF7DCFE10BD0268546824F406
:1035C000E06454600268146844F400741460016399
:1035D00080F83D3090F83E2080F83E10402AE9D136
:1035E000FEF74FF810BD000010B590F83D1090F8B0
:1035F0003E30C26A048DB4B1212903D0402B11D1D1
:1036000022290FD1418DE1B390F83E10402942D0DC
:10361000416A026809781161416A491C4162418D21
:10362000491E418510BD2129E8D120230021082A07
:1036300013D0202A11D012F5803F0ED002685468B2
:1036400024F4E06454601122026380F83E1080F894
:103650003D3000BFFDF78CFE10BD0268546824F4B5
:10366000E06454600268146844F4007414600163F8
:1036700080F83D3090F83E2080F83E10402AE9D195
:1036800000E002E0FDF7FDFF10BD0068416821F495
:103690008061416010BDBDE8104000F0D3B800006B
:1036A00078B590F83E50C26A036B90F83D600024F4
:1036B0000168222E7AD1066D0EB9402D76D0056DA7
:1036C0001DB90569B5F5404F09D0458D05B3468D47
:1036D000384D012E0ED0438D022B3AD05DE04A6961
:1036E0008A6900920A6842F480720A60016D491C7E
:1036F000016578BDAA4213D10A6822F480620A608B
:1037000001684A68120503D50A6822F4806216E04F
:103710004A698A6900920A6842F400720A6039E0D4
:10372000082A10D0202A0ED0122B0AD0042A03D047
:10373000022A01D0102AE7D10A6842F480620A60A6
:1037400024E0012AE0D00A6822F480620A6001685D
:10375000DEE7042A21D0022A1FD0102A1DD00B68D0
:1037600023F480630B6001680B6843F400630B6013
:1037700001684B681B0509D5AA4212D0012A10D056
:10378000082A0ED0102A0CD0202A0AD001684A69D3
:1037900089690091046578BD08E00B6843F4806393
:1037A000E5E74A6842F480524A60EFE74869886971
:1037B0000090F0E70000FFFF90F83E10402910D085
:1037C0000169B1F5804F19D0016DA9B3016D0129CF
:1037D00010D1416C5FF0F10201F4407142EAD11165
:1037E00006E0016D0029416C05D0C9B241F001012C
:1037F00000680161704701F0FE01F9E790F83D10A3
:103800002129416C09D0C9B241F00101026811615E
:10381000416B29B1C96B49B902E001F0FE01F5E73E
:10382000816B0029E6D0C96B0029E3D000684168AC
:1038300041F4006141607047FFE7416CF02201F400
:103840004071CBE710B590F83D10026D22B3026DC8
:10385000012A2FD0026D022A1DD122292FD0428D9C
:103860000AB1212933D0428D002A14D1212912D145
:1038700001684A6822F4E0624A6001680A6842F41A
:1038800000720A6000210163202280F83D2080F848
:103890003E10FDF7F6FE10BDC16C0129816C02D00F
:1038A000C1F3072108E00268C9B21161016D891CEA
:1038B000016510BD816CC9B20268116104E0016844
:1038C0000A6842F480720A60016D491CF0E7416A9F
:1038D000026809781161416A491C4162418D491EA3
:1038E000418510BD38B50C4690F83D2000212825B3
:1038F000954302680B4605D051699169009180F8A3
:103900003C3038BD556825F480655560E243540766
:1039100000D50121120601D5828900E0028B80F8D2
:103920003C3092B2FDF7E7FA38BD00002DE9F041D6
:1039300090F83D40C26A002320261C4F01686FF4B6
:103940008065082A01D0202A01D1282C04D0212CFE
:1039500016D04D61BDE8F081C7624A6822F4E0628A
:103960004A6001684D6101680A6822F480620A6059
:10397000036380F83D6080F83E30FDF7F7FCE9E72F
:10398000C7622122026380F83D6080F83E304A68B9
:1039900022F4E0624A6001684D6101680A6822F41D
:1039A00080620A60FDF7B5FED4E700000000FFFF6B
:1039B000F8B590F83D6004460068416821F4E06184
:1039C00041602068002541690091016841F00101D2
:1039D00001602068016821F480610160206841680D
:1039E000090520D5474F222E48D02A2E46D0616B9C
:1039F000096849686185618D19B1216C41F0040144
:103A00002164416821F400614160606BFDF724F896
:103A1000012808D0606B0765606BFDF70BF810B1EB
:103A2000606B016D8847608D08B320684169C943A8
:103A3000490708D40069616A0870606A401C6062C6
:103A4000608D401E608520684169C943490608D4DD
:103A50000069616A0870606A401C6062608D401E87
:103A60006085608D18B1206C40F004002064206CEB
:103A700000B32046BDE8F840FFF710BBA16B096812
:103A800049686185618D19B1216C41F0040121649F
:103A9000416821F400614160A06BFCF7DDFF012863
:103AA000C1D0A06B0765A06BFCF7C4FF0028BAD09B
:103AB000A06BB6E72A2E06D12563282084F83D00A6
:103AC0002046FDF725FE94F83D10202028290DD032
:103AD000216B222901D0222E07D1256384F83D00D5
:103AE00084F83E502046FDF713FEF8BD0649E1621A
:103AF000256384F83D0084F83E502046FDF736FCEF
:103B0000F8BD0000E12F00080000FFFF70B5164669
:103B10000D4604460DE02046FFF76CFB08B101207E
:103B200070BD681C05D0FDF7DFF9801BA84207D8DF
:103B300035B120684069C0434007ECD4002070BD17
:103B4000002044F8300F20216173A073216941F0F7
:103B5000200121612073E2E72DE9F0471E469046DF
:103B60000D460446C1F30747DDF8209008E0701CBD
:103B700006D0FDF7B9F9A0EB0900B0420FD876B135
:103B80002068012F18D0806925EA00000004000C8D
:103B900014D000214145EAD00020BDE8F087002084
:103BA00044F8300F20216173A073216941F0200196
:103BB000216120730120F0E74069E5E70121E9E791
:103BC0002DE9F0479A4691460E46044600254FF0EF
:103BD0002008C1F3074725E020684069C04340053D
:103BE00014D42068016841F40071016021686FF409
:103BF00080604861256384F83D8084F83E50206CE5
:103C000040F00400206484F83C501FE0B9F1FF3F0D
:103C100008D0FDF769F9A0EB0A0149450CD8B9F1C4
:103C2000000F09D02068012F13D0806926EA000018
:103C30000004000C0BD0CFE744F8305F84F80D800F
:103C4000A573206940F02000206125730120BDE8A4
:103C5000F0874069EAE72DE9F041002590460E46DD
:103C60000446202717E04069C043C0060CD454F82E
:103C7000301B6FF01000486144F810596777A57742
:103C8000206A2062257717E0FDF72EF9A0EB0800E7
:103C9000B04208D83EB120684169C9434906E2D420
:103CA0000020BDE8F08144F8305F6773A573206998
:103CB00040F02000206125730120F2E770B5164620
:103CC0000D4604460DE02046FFF794FA08B10120A6
:103CD00070BD681C05D0FDF707F9801BA84207D806
:103CE00035B120684069C0430006ECD4002070BDA7
:103CF000002044F8300F20216173A073216941F046
:103D0000200121612073E2E72DE9F04387B01421FF
:103D10006846FCF793FB56480024016841F0100107
:103D20000160016801F010010591016841F0040192
:103D30000160016801F004010591016841F0200172
:103D40000160016801F020010591016841F08001E6
:103D50000160016801F080010591016841F00101F5
:103D60000160016801F001010591016841F0020163
:103D70000160016801F002010591016841F008014C
:103D80000160016801F008010591016841F04001FE
:103D900001600068374E00F0400044F28105059054
:103DA000002229463046FDF79AF8DFF8CC90002231
:103DB00048F270014846FDF792F8DFF8C080002213
:103DC00040214046FDF78BF84FF4005000904FF42F
:103DD0008810CDE9010469462948FCF78DFF00955C
:103DE0000125CDE90154694630460394FCF784FF70
:103DF0004FF440700227CDE9000703260294072004
:103E0000CDE9036069464846FCF776FFE803CDE953
:103E10000005CDE9024669464846FCF76DFF4020A3
:103E20000090CDE90154694640460394FCF764FFD5
:103E30008020CDE90004694640460294FCF75CFF0F
:103E4000F002CDE9000702940A20CDE9036069463B
:103E50000C48FCF751FF70200090CDE901546946F1
:103E600048460394FCF748FF07B0BDE8F083000024
:103E70003038024000040240000C024000180240AA
:103E800000080240000002400F4810B50D490160D3
:103E90004FF48271416000218160C1604FF4007273
:103EA0000161C0E905123022C0E907214162816247
:103EB0000A21C162FDF7F2FF002801D072B6FEE7C9
:103EC00010BD0000003001407800002010B588B01F
:103ED0001C216846FCF7B2FA154814490024016019
:103EE0000321C0E901146421C0E903148461FEF7D1
:103EF000B9F908B172B6FEE70D48FEF7A0FD08B1AA
:103F000072B6FEE7602000901E20CDE90104002279
:103F1000694607480494FEF72CFD08B172B6FEE727
:103F20000348FEF7D3FC08B010BD00000044014078
:103F30006001002010B588B01C216846FCF77EFAAD
:103F400015481449002401600F21C0E9011444F60A
:103F50001F61C0E903148461FEF784F908B172B6E9
:103F6000FEE70D48FEF76BFD08B172B6FEE7602074
:103F7000CDE9000402940022694607480494FEF744
:103F8000F8FC08B172B6FEE70348FEF79FFC08B0E4
:103F900010BD000000480140A801002030B58FB0DE
:103FA000002409940A940B94142104A80C94FCF79F
:103FB00045FA32480D940E940094019402942E49CF
:103FC000039401600F21C0E9011447F23051C0E9A8
:103FD000031444618461FEF745F908B172B6FEE747
:103FE0004FF48050099009A92448FEF71DFA08B142
:103FF00072B6FEE72148FEF715FB08B172B6FEE780
:10400000042004905020CDE9050404A91B4808941D
:10401000FEF7A9FD08B172B6FEE70D940DA9174889
:104020000E94FEF7D7F808B172B6FEE70125CDE988
:10403000004502940022694610480394FEF763FA93
:1040400008B172B6FEE70220009001900422694692
:104050000A48FEF758FA08B172B6FEE70822694628
:104060000648CDE90045FEF74EFA002801D072B6A9
:10407000FEE70FB030BD000000040140D00000207A
:1040800010B58CB000240794089409941C2168464C
:104090000A94FCF7D3F91A48184901600F21C0E9C6
:1040A000011444F61F61C0E903148461FEF7DAF8D5
:1040B00008B172B6FEE74FF48050079007A9104888
:1040C000FEF7B2F908B172B6FEE70D48FEF7B7FC8D
:1040D00008B172B6FEE76020CDE900040294002228
:1040E000694607480494FEF744FC08B172B6FEE73F
:1040F0000348FEF7EBFB0CB010BD00000040014090
:1041000018010020FEE7FEE77047000070B5054685
:10411000A0F2B730184CB0F5097F0BD90EE020683B
:10412000A842206801D9401E00E0401C2060022007
:10413000FCF7D0FD2068A842F1D11BE040F2B63672
:10414000B54206DB08E02068401E20600220FCF734
:10415000C1FD2068B042F6D140F2DC56B54206DC23
:1041600008E02068401C20600220FCF7B3FD2068B6
:10417000B042F6D1012070BD344801400148FDF73E
:104180000FBE00007800002010B5806B0021C187B1
:10419000C186FDF703FE10BD38B504461248134B27
:1041A0000068B0FBF3F04FF47A73584300906068F6
:1041B000B0F5827F0DD10B4600920022802120466F
:1041C00000F016F870B1606D40F0200060650320CB
:1041D00038BD009830B1401E009020688068C04310
:1041E0000006F6D5002038BD0C00002000366E0118
:1041F0002DE9F8431E46914688460446089DFCF783
:1042000073FE401B351AFCF76FFE07462548006811
:10421000C0F3CB30684338E0701C37D0FCF764FE45
:10422000C01BA84203D215B1009860B32CE02068EF
:10423000416821F0E00141606068B0F5827F0BD1F8
:10424000A068B0F5004F02D0B0F5806F04D12068AF
:10425000016821F040010160A06AB0F5005F09D15A
:104260002068016821F4005101602068016841F470
:1042700000510160012084F85100002084F85000B2
:104280000320BDE8F8830025401E00902068816867
:1042900038EA010004D000214945BDD10020F0E7F3
:1042A0000121F9E70C00002070470021A0F8BE12A0
:1042B0004FF4AF71A0F8BC1201207047FDF72ABA85
:1042C00010B594B034216846FCF7B8F814210DA855
:1042D000FCF7B4F818480024016841F080510160EF
:1042E000006800F0805012901448016841F4404189
:1042F00001600068069400F4404012900220009093
:1043000001200390102004906846FDF787FB08B158
:1043100072B6FEE70F20CDE90D044FF48050CDE9D1
:104320000F4000210DA81194FDF78EFA002801D04E
:1043300072B6FEE714B010BD403802400070004075
:104340000248016841F470010160704788ED00E0A7
:104350000148FEF707BA0000180100200148FEF7E7
:1043600001BA0000A80100200148FEF7FBB90000D7
:10437000600100200148FEF7F5B90000D0000020E0
:10438000F0B50268254C264D264E274F274B4FF09F
:10439000804CA04209D0604507D0A84205D0B04269
:1043A00003D0B84201D0984204D122F0700E4A687E
:1043B00042EA0E02A0421BD0604519D0A84217D095
:1043C000B04215D0B84213D0984211D0184DA8422F
:1043D0000ED0184DA8420BD0174DA84208D0174D4B
:1043E000A84205D0164DA84202D0164DA84203D1CE
:1043F00022F44075CA682A434D6922F080022A439C
:1044000002608A68C2620A688262A04201D0984251
:1044100001D10969016301214161F0BD0000014042
:104420000004004000080040000C0040000401406F
:104430000040014000440140004801400018004095
:10444000001C00400020004010B501F01F030121B6
:10445000046A99408C430462016A9A4011430162E4
:1044600010BD10B5846842EA032224F47F440A4355
:104470002243826010BD826822F070020A4342F03B
:104480000701816070470000F0B5026A22F0010266
:104490000262036A42688469124E24F073050C6854
:1044A0002C4323F002058B682B430D4DA84201D00D
:1044B000B04205D123F00807CB683B4323F0040347
:1044C000A84201D0B04205D14D6922F44072154393
:1044D0008A692A4342608461496841630362F0BD8E
:1044E0000000014000040140F0B5026A22F0100211
:1044F0000262026A436884690D6824F4E64444EA6F
:1045000005248D6822F0200242EA05120F4D104E5C
:10451000A84201D0B04206D1CF6822F0800242EA20
:10452000071222F04002A84201D0B04207D14D69E3
:1045300023F4406343EA85038D6943EA85034360BE
:104540008461496881630262F0BD0000000001409F
:1045500000040140F0B5026A22F480720262026A2D
:104560004368C46922F4007224F073050C68124E8B
:104570002C438D6842EA05220E4DA84201D0B0427C
:1045800006D1CF6822F4006242EA072222F4806258
:10459000A84201D0B04207D14D6923F4405343EA09
:1045A00005138D6943EA05134360C4614968C1631B
:1045B0000262F0BD000001400004014030B5026A13
:1045C00022F480520262046A4268C3690D6823F4CF
:1045D000E64343EA05238D6824F4005444EA053495
:1045E000084DA84202D0084DA84204D14D6922F4DA
:1045F000804242EA85124260C361496801640462F4
:1046000030BD0000000001400004014070B50368A7
:1046100000249A6822F070054A682A4322F00705B0
:104620000A682A439A604A6812F00F0F31D11211BA
:10463000082A2ED2DFE802F02E2E2E2E0B21270480
:104640000B69D1E902210068FFF70BFF22E00A683D
:10465000052A10D00268136A156A25F00105156253
:1046600002689569096925F0F00545EA0111916133
:10467000006803620EE0012070BD0A698968006865
:1046800000F00AF806E00A698968006800F056F848
:1046900000E00124204670BD10B5036A046A24F0CE
:1046A00001040462846924F0F00444EA021423F053
:1046B0000A020A438461026210BD000070B5046AF8
:1046C00024F0010404628469056A154EB04214D0D6
:1046D000B0F1804F11D0134EB0420ED0124EB04206
:1046E0000BD0124EB04208D0114EB04205D0114E40
:1046F000B04202D0104EB04203D124F00304144360
:1047000001E044F001041A0724F0F00444EA1262C4
:1047100025F00A0301F00A0119438261016270BDAC
:10472000000001400004004000080040000C004070
:1047300000040140004001400018004010B5036A29
:1047400023F0100303628369046A23F4704343EA8D
:10475000023224F0A00343EA01118261016210BD1C
:1047600030B5046A24F0100404628469056A24F4F4
:10477000407444EA022222F470444FF6FF7202EAC7
:1047800003322243A02425F0A00304EA01111943B7
:104790008261016230BD10B5806B0021C185C1848A
:1047A000FEF70EFA10BD01680C3151E8002F22F41B
:1047B000907241E80023002BF5D10168143151E8D3
:1047C000002F22F0010241E80023002BF5D1016BFC
:1047D000012909D101680C3151E8002F22F01002A3
:1047E00041E80023002BF5D1202180F83E10002164
:1047F0000163704708B590F83E10222901D00220CD
:1048000008BD82684FF480539A4201D1016921B1F9
:10481000816A9A421BD04AB10AE00268816A5268F2
:10482000C2F308020A80816A891C08E0026972B139
:104830000268526802F07F020A70816A491C816234
:10484000C18D491E0904090CC18503D019E0026815
:104850005268F1E70168CA6822F02002CA60016864
:10486000CA6822F48072CA6001684A6922F00102B3
:104870004A61202180F83E10016B012903D0FEF728
:1048800045FB002008BD0021016301680C3151E89F
:10489000002F22F0100241E80023002BF5D101681F
:1048A0000A68D20602D50A6849680091818DFEF730
:1048B00086F9E6E770B5044600680169E26821F40C
:1048C0004051114301612169A068E26908436169AF
:1048D000114308432168CA6849F20C639A430243B2
:1048E000CA6020684169A26921F4407111434161A5
:1048F00034492068884208D03349884205D033497A
:10490000884202D03249884202D1FDF747F801E0DF
:10491000FDF734F8E2690023192164253226B2F547
:10492000004F626828D0A0FB0101930F9200FBF7B3
:10493000C5FC0146B0FBF5F06FF01802504301EBE7
:10494000800006EB0010B0FBF5F000F0F002B1FBC8
:10495000F5F002EB0012B1FBF5F06FF018035843CD
:1049600001EB800006EB0010B0FBF5F000F00F004B
:1049700021681044886070BDA0FB010192185B4162
:10498000FBF79CFC0146B0FBF5F00201B1FBF5F032
:104990006FF01803584301EB800006EBC000B0FB3A
:1049A000F5F000F0F80002EB4002B1FBF5F05843DF
:1049B00001EB800006EBC000B0FBF5F000F0070053
:1049C000D6E700000010014000140140001801402B
:1049D000001C01402DE9F041984617460E4604465A
:1049E000069D27E0681C25D02DB1FCF77DFAA0EBD1
:1049F0000800A8421ED920680C3050E8001F21F49E
:104A0000D07140E80012002AF5D12068143050E837
:104A1000001F21F0010140E80012002AF5D12020FA
:104A200084F83D0084F83E00002084F83C00032018
:104A3000BDE8F0812068006836EA000004D000205C
:104A4000B842CFD00020F3E70120F9E70148FEF794
:104A5000B9B80000F0010020FEE7000010B5054BDA
:104A600030B1012220211846FCF739FA012010BD8F
:104A70000022F7E7000C02400907090E002804DBBA
:104A800000F1E02080F80014704700F00F0000F102
:104A9000E02080F8141D7047FEB50746FE208126F1
:104AA00064248DF80800012302AA31463846009498
:104AB000FCF750FD012301AA314638460094FCF76B
:104AC00059FCFF208DF808009DF80450012302AA2C
:104AD000314638460094FCF73DFD012301AA3146DA
:104AE00038460094FCF746FC9DF8040045EA801027
:104AF000FEBD0000ADF5B16D0024FCF713FEFFF71D
:104B0000DFFBFFF701F9674865494FF48046016014
:104B10006549C0E90114C0E9034644618461C46188
:104B20000462FCF75FFB08B172B6FEE7FFF7ACF971
:104B30005F485E4901604FF4E131C0E901140C2186
:104B4000C460C0E904418461C461FEF76FF908B133
:104B500072B6FEE7FFF722FA5648016841F4800179
:104B600001600068002200F48000CDF88005114645
:104B70003820FCF737FE3820FCF726FE00221146CD
:104B80003A20FCF72FFE3A20FCF71EFEFFF778FADA
:104B9000FFF79CF9FFF7CEF942480021AC30FDF752
:104BA0006FFD40480421AC30FDF76AFD3D48082107
:104BB000AC30FDF765FD3B48AC30FDF7F9FB3C48F8
:104BC00000214838FDF76AFF394800219038FDF789
:104BD00065FF34485430FBF70BFD3248FFF75CFFAC
:104BE0006846FFF762FBB0A8FFF75FFB324940F26F
:104BF0009C400860DFF8C4B04FF4005A5146584654
:104C0000FCF768F908B36D1CEDB2052D06D9012239
:104C100080212B48FCF763F94FF001082148FFF78A
:104C20003BFFB8F1000F12D02149684600F04CF864
:104C300006461F49B0A800F047F807463220FCF7A7
:104C400049F83046FBF76AFE26E00025E6E71D48F6
:104C500000681C4908310968401A00B2A0F2CF5020
:104C60004142072091FBF0F006B21648001D006893
:104C7000B1B2A0F68820404207B20D4A684600F063
:104C800055F8B9B20A4AB0A800F050F83220FCF743
:104C900021F83046FBF702FE3846FFF737FAADE75A
:104CA0000054004024000020A086010000100140B4
:104CB000F001002030380240344801400008024032
:104CC000000402403404014070B50446B0F8BE024E
:104CD0000D4660B90DA11448FBF768FB0A23322288
:104CE00011492846FEF714F96420FBF7F3FFB4F8E6
:104CF000BE02002204EB4001401E31F8021C80B2CB
:104D0000A4F8BE0224F8102008B270BD43616E6E94
:104D10006F7420706F702066726F6D20656D707497
:104D20007920737461636B001000002010B5144685
:104D3000B0F8BE32B0F8BC22934205D25A005B1CD8
:104D4000A0F8BE3281520CE007A10C48FBF72EFB05
:104D50000A23322209492046FEF7DAF86420FBF7DD
:104D6000B9FF012010BD0000537461636B204F76C2
:104D70006572666C6F772121210000001000002011
:104D80004FF04070E1EE100A704700061016000662
:104D900010160000000000000000010203040607D6
:104DA000080900000000010203040000CC4D0008C7
:104DB000000000201000000014020008DC4D000874
:104DC0001000002048090000300200080100000027
:0C4DD00010000000000000000024F400AF
:04000005080001D915
:00000001FF
